:100000000C943A010C94E3420C94E3420C94E342C6
:100010000C94E3420C94E3420C94E3420C94A1410F
:100020000C94B1410C94E3420C94E3420C94E342EF
:100030000C94E3420C94E3420C94E3420C94E342AC
:100040000C94E3420C94E3420C94E3420C94E3429C
:100050000C94E3420C94E3420C94E3420C94E3428C
:100060000C94E3420C94E3420C94E3420C94E3427C
:100070000C94E3420C94E3420C94E3420C94E3426C
:100080000C94E3420C94E3420C94E5420C94E3425A
:100090000C94E3420C94E3420C94E3420C94E3424C
:1000A0000C94E3420C94E3420C94E3420C94E3423C
:1000B0000C94E3420C94E3420C94E3420C94E3422C
:1000C0000C94E3420C94E3420C94E3420C94E3421C
:1000D0000C94E3420C94E3420C94E3420C94E3420C
:1000E0000C94E3420C94E3420C9428420C94E342B7
:1000F0000C94E3420C94E3420C94E3420C94E342EC
:100100000C94E9420C94E3420C94E3420C94E342D5
:100110000C94E3420C94E3420C94E3420C94E342CB
:100120000C94E3420C94E3420C94E3420C94E342BB
:100130000C94E3420C94E3420C94E3420C94E342AB
:100140000C94E3420C94E3420C94E3420C94E3429B
:100150000C94E3420C94E3420C94E3420C94E3428B
:100160000C94E3420C94E3420C94E3420C94E3427B
:100170000C94E3420C94E3420C94E3420C94E3426B
:100180000C94E3420C94E3420C94E3420C94E3425B
:100190000C94E3420C94E3420C94E3420C94E3424B
:1001A0000C94E3420C94E3420C94E3420C94E3423B
:1001B0000C94E3420C94E3420C94E3420C94E3422B
:1001C0000C94E3420C94E3420C94E3420C94E3421B
:1001D0000C94E3420C94E3420C94E3420C94E3420B
:1001E0000C94E3420C94E3420C94E3420C94E342FB
:1001F0000C94E3420C94E3420C94E34220002E0062
:10020000802E002E340085DA2E342E3A802E3A2E9F
:100210004200860E2E422E46802E462E4A0086161C
:100220002E4A2E4B802E4B2E4C00861A2E4C2E50D2
:10023000802E502E5100861B2E512E52802E522E73
:100240005300861C2E532E56802E562E5700861D88
:100250002E572E59802E592E5B00861E2E5B2E6344
:10026000802E632E640086202E642E66802E662EDD
:100270006700862111241FBECFEFCDBFDFE2DEBFB6
:10028000ECEFF1E042E017C0B591A59135912591D1
:10029000059107FD0CC095918591EF01F92FE82F8D
:1002A00005900D92A217B307D9F7FE0104C01D9265
:1002B000A217B307E1F7E437F40731F70E94992E4C
:0802C0000C944B42F894FFCFAF
:1002C800000091012303B5044706D8076909F90A14
:1002D8008A0C190EA90F3711C5125214DF156A17A7
:1002E800F5187F1A071C8F1D161F9B201F22A2239B
:1002F8002325A32621289E29192B932C0B2E812FE9
:10030800F5306832D8334735B3361D388539EB3A7E
:100318004F3CB03D0F3F6C40C6411D437244C5453C
:1003280014476148AB49F24A374C784DB74EF24F03
:100338002A5160529253C154EC55145739585B599D
:10034800795A935BAA5CBE5DCE5EDA5FE260E761D4
:10035800E862E563DF64D465C666B3679D68836950
:10036800646A416B1B6CF06CC16D8D6E566F1A70B0
:10037800DA7095714C72FF72AD735774FD749D7588
:100388003A76D1766577F3777D7802798379FF7944
:10039800767AE97A577BC07B247C847CDE7C347D4A
:1003A800857DD27D197E5C7E997ED27E067F357FE3
:1003B8005F7F857FA57FC07FD77FE87FF57FFD7F43
:1003C800FF7FFD7FF67FEA7FD97FC37FA97F897F83
:1003D800647F3B7F0D7FD97EA17E647E227EDB7D9C
:1003E800907D3F7DEA7C907C317CCD7B657BF77A84
:1003F800867A0F7A937913798F7805787777E57607
:100408004E76B27512756D74C47316736472AD71DD
:10041800F2703370706FA86EDC6D0B6D376C5E6BAD
:10042800816AA069BB68D267E566F465FF64066403
:10043800096309620461FC5FF15EE15DCE5CB85B53
:100448009E5A80595F583B571356E854B9538852FF
:1004580053511B50E04EA24D614C1D4BD6498C4860
:100468004047F0459E444A43F34199403D3FDE3DB5
:100478007D3C1A3BB4394C38E2367635083498322C
:100488002531B12F3C2EC42C4A2BCF295328D526F1
:100498005525D4235122CD20481FC21D3A1CB21A1B
:1004A80028199E1712168614F9126B11DC0F4D0EBF
:1004B800BE0C2D0B9D090C087B06E9045703C601E9
:1004C8003400A3FE11FD7FFBEEF95CF8CBF63BF59B
:1004D800AAF31AF28BF0FDEE6EEDE1EB55EAC9E8EE
:1004E8003EE7B4E52CE4A4E21DE198DF13DE91DCDD
:1004F8000FDB8FD910D893D618D59ED326D2B0D07B
:100508003BCFC8CD58CCE9CA7CC912C8A9C643C5D7
:10051800DFC37DC21EC1C1BF67BE0FBDBABB67BA0C
:1005280017B9CAB77FB638B5F3B3B1B272B137B03D
:10053800FEAEC8AD96AC67AB3BAA12A9EDA7CBA699
:10054800ACA591A47AA366A255A149A0409F3A9E62
:10055800399D3B9C419B4B9A59996B9881979B96E7
:10056800B995DB9401942C935A928D91C490FF8F86
:100578003F8F838ECB8D188D698CBF8B198B778AB3
:10058800DA894289AE881F8895870F878D861186FC
:1005980099852685B7844E84E98388832D83D782FD
:1005A80085823882F081AD816E8135810081D1806C
:1005B800A68080805F8043802C801A800C80048015
:1005C80001800280098014802480398054807380DF
:1005D8009780BF80ED80208157819481D5811B82CF
:1005E8006682B6820B836483C38326848E84FA84EE
:1005F8006B85E1855C86DC866087E9877688088973
:100608009E893A8AD98A7D8B268CD38C858D3B8EA0
:10061800F58EB48F77903E910A92DA92AE938694D3
:100628006295439627971098FC98ED99E19AD99B83
:10063800D69CD69DDA9EE19FECA0FBA10EA324A434
:100648003EA55BA67BA79FA8C7A9F1AA1FAC51AD81
:1006580085AEBCAFF7B035B275B3B9B4FFB549B71D
:1006680095B8E4B936BB8ABCE1BD3ABF96C0F4C1BF
:1006780055C3B8C41DC685C7EFC85BCAC9CB38CD3A
:10068800AACE1ED094D10BD384D4FFD57CD7FAD868
:1006980079DAFADB7DDD00DF85E00BE293E31BE529
:1006A800A5E62FE8BAE947EBD4EC61EEF0EF7FF16D
:1006B8000EF39FF42FF6C0F751F9E3FA74FC06FE27
:1006C80098FF2901BB024D04DE0570070109910A54
:1006D800220CB20D410FD0105E12EB1378150417DF
:1006E8008F18191AA21B291DB01E3620BA213D23C6
:1006F800BF243F26BE273B29B72A312CA92D202FFE
:10070800953008327933E8345536BF3728398F3A6F
:10071800F33B553DB43E12406C41C4421A446D450A
:10072800BD460B4856499E4AE34B254D644EA14FA2
:10073800DA501052435372549F55C856ED5710590A
:100748002F5A4A5B625C775D875E955F9E60A46105
:10075800A662A4639E649565876676676168476943
:100768002A6A086BE36BB96C8B6D596E226FE76F61
:10077800A87065711D72D17281732C74D2747475EE
:100788001276AA763F77CF775A78E0786279DF7960
:10079800587ACC7A3B7BA57B0B7C6B7CC77C1E7D17
:1007A800717DBE7D077E4B7E8A7EC47EF97E297F61
:1007B800557F7B7F9D7FBA7FD17FE47FF27FFB7F70
:1007C800000000000000005F0000000700070014A0
:1007D8007F147F14242A7F2A12231308646236495F
:1007E8005522500005030000001C22410000412250
:1007F8001C00082A1C2A0808083E08080050300077
:1008080000080808080800606000002010080402BA
:100818003E5149453E00427F4000426151494621D0
:1008280041454B311814127F1027454545393C4A3C
:10083800494930017109050336494949360649498C
:10084800291E003636000000563600000008142223
:100858004114141414144122140800020151090609
:10086800324979413E7E1111117E7F494949363E10
:10087800414141227F4141221C7F494949417F0929
:100888000901013E414151327F0808087F00417F3C
:1008980041002040413F017F081422417F404040F1
:1008A800407F0204027F7F0408107F3E4141413EA1
:1008B8007F090909063E4151215E7F0919294646EB
:1008C8004949493101017F01013F4040403F1F2014
:1008D80040201F7F2018207F6314081463030478C6
:1008E8000403615149454300007F41410204081057
:1008F8002041417F00000402010204404040404082
:10090800000102040020545454787F484444383885
:1009180044444420384444487F3854545418087E8A
:10092800090102081454543C7F0804047800447DEB
:1009380040002040443D00007F10284400417F4093
:10094800007C041804787C0804047838444444384B
:100958007C14141408081414187C7C08040408482F
:1009680054545420043F4440203C4040207C1C20E8
:1009780040201C3C4030403C44281028440C505037
:10098800503C4464544C44000836410000007F0049
:1009980000004136080008082A1C08081C2A080814
:1009A8004F7363796C6F736B6F700047656E657218
:1009B80061746F722000416E616C697A61746F7244
:1009C80000416E2E73742E6C6F672E00576F627520
:1009D8006C6F736B6F70004D756C74696D657472B4
:1009E800200052533233322D3E5043200055737449
:0809F800617769656E69610019
:100A000073696E652020202020200073717561724B
:100A1000652020202000747269616E676C6520205B
:100A20000070696E6B206E6F69736500776869741A
:100A300065206E6F697300617262697472617279A8
:0D0A400020006E6F6E6520286F666629002D
:100A4D0020203275002020357500202038750020BB
:100A5D003130750020323075002035307500313061
:100A6D003075003230307500353030750020203152
:100A7D006D002020326D002020356D002031306D4D
:0B0A8D00002032306D002035306D007D
:100A9800557374617769656E696120004B616C6993
:100AA800627261636A6120005253323332202D2012
:100AB80050432000577973776965746C61637A00D5
:100AC8004A61736E6F736320202020004B6F6E7431
:080AD8007261737420202000FC
:100AE000344D000000324D000000314D0000003553
:100AF00030306B003230306B003130306B003530CD
:100B00006B000032306B000031306B0000356B0041
:100B10000000326B000000316B0000003530300007
:060B20000032303000003D
:100B260033316B32002032356B0031326B350020A9
:100B360020356B0020326B3500316B3235002035A5
:100B4600303000203235300020313235002020355B
:100B56003000202032350031322E3500202020355D
:010B6600008E
:100B67002020203500202020320020202031003591
:100B770030306D003230306D003130306D0020354F
:100B8700306D002032306D002031306D002020356F
:020B97006D00EF
:100B990004000500040005000A0019003200640081
:0E0BA900FA00F401E803C40988131027A861BC
:100BB7000000010004000C0024004C009C008C0184
:0C0BC7001C033C069C0F3C1F7C3E3C9C29
:100BD300C000800140028004000900120024002D9F
:040BE300983AA86133
:100BE7004D4B503C2D2D52532D3233322D2D3E502F
:020BF7004300B9
:0D0BF900414443206F66667365743A200026
:0D0C0600444143206F66667365743A200018
:0C0C130020202020202020524D533D00C6
:0B0C1F00444143206761696E3A2000E9
:0A0C2A0041726269747220583D00A7
:0A0C3400506F6D6961726F777900EF
:0A0C3E00101414141932643F7DFAFB
:0A0C480067332210F66B25183513F0
:090C520052656164792E2E2E001A
:090C5B00202020202044433D002C
:090C640057726974652E2E2E00F2
:090C6D00464D00414D00535700B3
:090C760057726974652E2E2E00E0
:080C7F004B6F6D62616A6E00AB
:080C870053706565643A20001A
:070C8F00426173653A200089
:070C9600576176653A20006A
:070C9D0020446565703D0075
:060CA400547269673D0077
:060CAA00532F732020000F
:060CB000252020473D0055
:060CB600447574793D0055
:060CBC00487A20413D00D2
:060CC200307573202000D4
:060CC800757320202000DE
:060CCE0030306E732000BF
:060CD400467265713D004F
:060CDA00204D696E3D0093
:060CE00020434831200012
:060CE6002043483220000B
:050CEC004375723D009C
:050CF1006442562000E2
:050CF600487A2F6400A4
:050CFB0056312E360009
:050D00004D696E690061
:050D0500484F4C4400C2
:050D0A00574F524B00A1
:050D0F005670703D006C
:050D14004D61783D0077
:050D19004176673D007A
:050D1E00524D533D00A1
:040D230020563D0019
:040D2700205A3D0011
:040D2B0020563D0011
:040D2F0020473D001C
:040D330064422000F6
:040D370064743D00A3
:040D3B00543A200006
:040D3F0020593D00FA
:040D4300562F6400C3
:040D4700732F6400A2
:040D4B002D4E415395
:040D4F006B487A0073
:040D5300206F6B00A2
:040D570063616C0068
:040D5B0020782000DC
:040D5F0030487A009E
:040D630053572000C2
:030D6700205A000F
:030D6A00583D00F1
:030D6D00463D0000
:030D70006D5600BD
:030D7300463D00FA
:030D7600463D00F7
:030D79004C4600E5
:030D7C00484600E6
:030D7F004C4600DF
:030D8200484600E0
:030D8500583D00D6
:030D8800487A00A6
:030D8B0030300005
:030D8E00445200CC
:030D9100522000ED
:100D94002F923F924F925F926F927F928F929F9287
:100DA400AF92BF92CF92DF92EF92FF920F931F9375
:100DB400CF93DF93CDB7DEB7C055D109CDBFDEBF2A
:100DC40040905C2E842D90E0A0E0825C934FAF4F66
:100DD400FC01F4912D96FFAF2D9780915B2E90E04E
:100DE400A0E0825C934FAF4FFC01F4912E96FFAFCD
:100DF4002E9719821A821B821C8281E0809301063D
:100E04002C961FAE2C9726961FAE26972F961FAEB4
:100E14002F9727961FAE27971AA61BAE1AAAAAA821
:100E2400AA2021F080915A2E873030F52696BFAC47
:100E34002697B11021C0DBACDD2029F0E0E0F1E021
:100E440080A9806880ABE0E0F1E080A1806880A3A5
:100E5400789481E080934800889520915B2E25301A
:100E640008F024E040915C2E453008F044E06BAD7E
:100E740080E090E20E94CD390E949B308AAB809141
:100E8400592E982F9370933059F40AA9003811F40D
:100E94000C948410AAA4AA2011F40C94841015C5EF
:100EA4000091582E20E10202800111248695869536
:100EB40083708BA7E0913C2EF0913D2E1F013FEFF4
:100EC400231A330A12F4212C312C7F0145E8E41A49
:100ED4004EEFF40A5CEFE51651E0F50634F00F2E00
:100EE400FBEFEF2EFF24F394F02DABACA11002C066
:100EF4002EEFF21A9923F1F0923029F52796AFAC30
:100F040027972A2D30E060915A2E70E088EC90E00B
:100F14000E9434416E507109C90168177907C4F001
:100F24002A2D2F5F27962FAF27971AA621961FAE3B
:100F3400219713C031E03AA721961FAE2197279637
:100F44001FAE27970AC01AA621961FAE219705C087
:100F54001AA641E021964FAF2197B1012E143F0408
:100F640008F0B3C4ABACAA2019F092E080E002C050
:100F740091E080E09E8F8F8FB0905A2EBD8E88278F
:100F840099278E1B9F0B9C013595279535952795A1
:100F94004091402E5091412E5A01550FCC08DD0846
:100FA400AD8ABE8ACF8AD88E9595879540913E2E7C
:100FB40050913F2E5A01550FCC08DD08ABAABCAAAC
:100FC400CDAADEAAAB014E1B5F0B440F551FFA01DD
:100FD400E050F04EE8A7F9A7FA01E050FC4DEEA36B
:100FE400FFA3AB01440F551FFA01E250F04EECA3EE
:100FF400FDA3ECA6FDA6F0E02D96BFAC2D97AB2C7F
:10100400B12CC12CD12CA98EBA8ECB8EDC8E2E960F
:10101400BFAC2E97AB2CB12CC12CD12CAFAAB8AE3F
:10102400C9AEDAAE8EAF9FAFAC015E5F4CAF5DAFC1
:1010340028AB39ABB9017E5F6EA77FA7C8010A97B9
:1010440029968EAF9FAF2997D8011A962B96AEAFEB
:10105400BFAF2B9798012B5F3F4F23962EAF3FAF27
:101064002397A8014550510925964EAF5FAF2597A8
:101074000F2FAAA4A1100C94B410BBA4B1103EC0AD
:10108400ECA1FDA146815781208131818281938128
:10109400280F391F84819581820F931F840F951F18
:1010A40099230CF4039695958795959587952396A2
:1010B400CEACDFAC2397C816D90614F00C94B81044
:1010C40080859185480F591F82859385480F591F44
:1010D40084859585480F591F552314F44D5F5F4F40
:1010E40055954795559547952596EEADFFAD2597B2
:1010F4004E175F070CF47DC00C94B810FBA5F230BA
:10110400C9F4ECA1FDA1848195812B96AEACBFAC52
:101114002B97A816B90614F00C94B8108681978101
:101124002996CEACDFAC29978C159D050CF468C0CC
:101134000C94B8101BA51130D9F5ECA1FDA1468182
:1011440057812081318182819381280F391F8481C5
:101154009581820F931F840F951F99230CF4039696
:1011640095958795959587952996AEACBFAC2997AB
:101174008A159B0514F00C94B81020853185240F32
:10118400351F82859385280F391F84859585820FA5
:10119400931F99230CF403969595879595958795B8
:1011A4002B96CEACDFAC2B97C816D90684F1DEC7DC
:1011B4001BA5133009F0DAC7ECA1FDA18481958148
:1011C4002996AEACBFAC29978A159B050CF0CEC707
:1011D400868197812B96CEACDFAC2B97C816D906A7
:1011E4000CF0C4C700E027961FAE279711E01AA79A
:1011F40014C000E027961FAE279721E02AA70DC050
:1012040000E027961FAE279731E03AA706C000E01A
:1012140027961FAE279741E04AA710E060960FAFCC
:10122400609761961FAF619729C32196EFAD21970F
:10123400E111F3CF32C3FD8DF111CFC16196AFAC93
:101244006197AA2019F08EA59FA502C088A999A923
:10125400820D931DFC01EE0FFF1FEE5FFF4D2081F9
:1012640031815901330FCC08DD08A98ABA8ACB8AA7
:10127400DC8AFC01EE0FFF1FEC5FFF4D8080918044
:10128400092C000CAA08BB08FC01EE0FFF1FEA5F43
:10129400FF4DC080D1800D2C000CEE08FF08880F94
:1012A400991FFC01E85FFF4D808191812C01990F0A
:1012B4006608770889899A89AB89BC89880F991F40
:1012C400AA1FBB1F880F991FAA1FBB1F09891A8950
:1012D4002B893C89080F191F2A1F3B1F08A319A338
:1012E4002AA33BA3A8E3B0E0A50194010E944042D5
:1012F400AB01BC0108A119A12AA13BA1401B510BC0
:10130400620B730BD701C601880F991FAA1FBB1F5D
:10131400880F991FAA1FBB1F880F991FAA1FBB1FE5
:101324008C199D09AE09BF09880F991FAA1FBB1FFD
:10133400840F951FA61FB71F9C01AD012419350901
:1013440046095709698D7A8D8B8D9C8D0E94C14108
:10135400DC01CB01072E7EE0B595A795979587957F
:101364007A95D1F7702D0D891E892F89388D800FBC
:10137400911FA21FB31F8F3F9105A105B10529F04D
:1013840024F08FEF90E0A0E0B0E060961FAD60978E
:10139400E12FF0E0E050F44DBB231CF480E090E03A
:1013A400DC018083D501C401880F991FAA1FBB1FCC
:1013B400880F991FAA1FBB1F880F991FAA1FBB1F45
:1013C400880D991DAA1DBB1D49895A896B897C8981
:1013D400481B590B6A0B7B0BD701C601880F991F59
:1013E400AA1FBB1F880F991FAA1FBB1F880F991F15
:1013F400AA1FBB1F8C0D9D1DAE1DBF1D841B950B0D
:10140400A60BB70B84199509A609B7099C01AD0170
:10141400220F331F441F551F220F331F441F551F14
:10142400698D7A8D8B8D9C8D0E94C141DC01CB012D
:10143400072E7EE0B595A795979587957A95D1F770
:10144400702D0D891E892F89388D800F911FA21F41
:10145400B31F8F3F9105A105B10529F024F08FEF4B
:1014640090E0A0E0B0E06096EFAD6097EF5FF0E051
:10147400E050F44DBB231CF480E090E0DC01808359
:10148400D501C401880F991FAA1FBB1F880F991F7C
:10149400AA1FBB1F880F991FAA1FBB1F9C01AD0168
:1014A400281939094A095B0949015A01880C991C10
:1014B400AA1CBB1C09891A892B893C89801A910AA8
:1014C400A20AB30AA8E3B0E0A70196010E94404231
:1014D400860E971EA81EB91ED301C201880F991F3C
:1014E400AA1FBB1F880F991FAA1FBB1F840D951D20
:1014F400A61DB71DA5019401281B390B4A0B5B0BD4
:10150400698D7A8D8B8D9C8D0E94C141DC01CB014C
:10151400072E7EE0B595A795979587957A95D1F78F
:10152400702D0D891E892F89388D800F911FA21F60
:10153400B31F8F3F9105A105B10529F024F08FEF6A
:1015440090E0A0E0B0E06096EFAD6097EE5FF0E071
:10155400E050F44DBB231CF480E090E0DC01808378
:1015640060961FAD60971D5F60961FAF6097D701AF
:10157400C601880F991FAA1FBB1F880F991FAA1F96
:10158400BB1F880F991FAA1FBB1F880F991FAA1F73
:10159400BB1F9C01AD01220F331F441F551F220F97
:1015A400331F441F551F698D7A8D8B8D9C8D0E942E
:1015B400C141DC01CB01072E7EE0B595A795979537
:1015C40087957A95D1F7702DAD88BE88CF88D88C51
:1015D4008A0D9B1DAC1DBD1D25C10D8D013009F06B
:1015E400F3C061961FAD6197112319F06CAC7DAC0B
:1015F40002C06EAC7FAC620C731CF301EE0FFF1FD4
:10160400EA5FFF4DC080D1800D2C000CEE08FF086E
:10161400F301EE0FFF1FEE5FFF4D80819181092ED4
:10162400000CAA0BBB0BAC01BD01440F551F661F78
:10163400771F840F951FA61FB71F880F991FAA1F16
:10164400BB1FF301EE0FFF1FE050F04E808091802E
:10165400092C000CAA08BB08881A990AAA0ABB0A12
:10166400F301EE0FFF1FEC5FFF4DA081B18126E275
:1016740030E00E94B542860E971EA81EB91EA6E24F
:10168400B0E0A70196010E944042860E971EA81E54
:10169400B91EF301EE0FFF1FE85FFF4D80819181BA
:1016A400092E000CAA0BBB0BAC01BD01440F551F46
:1016B400661F771F840F951FA61FB71F880F991FDA
:1016C400AA1FBB1F881A990AAA0ABB0AF301EE0FC4
:1016D400FF1FE65FFF4D80819181092E000CAA0B4C
:1016E400BB0BA5019401280F391F4A1F5B1F698D8D
:1016F4007A8D8B8D9C8D0E94C141DC01CB01072E1C
:101704007EE0B595A795979587957A95D1F7702D35
:101714000D891E892F89388D800F911FA21FB31F39
:101724008F3F9105A105B10529F024F08FEF90E0DA
:10173400A0E0B0E060961FAD6097E12FF0E0E050CC
:10174400F44DBB231CF480E090E0DC0180836096C0
:10175400EFAD6097EF5F6096EFAF6097D701C6017A
:10176400880F991FAA1FBB1F880F991FAA1FBB1F91
:10177400880F991FAA1FBB1F880F991FAA1FBB1F81
:101784009C01AD01220F331F441F551F220F331F2D
:10179400441F551F698D7A8D8B8D9C8D0E94C1418C
:1017A400DC01CB01072E7EE0B595A795979587952B
:1017B4007A95D1F7702DAD88BE88CF88D88C8A0DE4
:1017C4009B1DAC1DBD1D2EC06196BFAC6197BB2097
:1017D40009F4D0C4EEA1FFA1A081B1812FA938AD35
:1017E40049AD5AAD0E949142BB2797FDBA95A92FE6
:1017F400982F872FABA8BCA8CDA8DEA88A0D9B1D67
:10180400AC1DBD1D8F3F9105A105B10529F024F044
:101814008FEF90E0A0E0B0E0BB23C4F480E090E060
:10182400DC0114C08F3F9105A105B10529F024F016
:101834008FEF90E0A0E0B0E0BB231CF480E090E0E8
:10184400DC016196BFAC6197BB2049F06096CFACD8
:101854006097EC2DF0E0E050F34D808308C0609673
:10186400DFAC6097ED2DF0E0E050F44D808361969D
:101874000FAD61970F5F61960FAF619761961FADD2
:101884006197812F90E0EE8DFF8D8E179F070CF4EA
:10189400D2CC60960FAD60970F5FFFEF2F1A3F0A0F
:1018A400E8A5F9A53296E8A7F9A7EEA1FFA132961B
:1018B400EEA3FFA3ECA1FDA13296ECA3FDA3ACA47F
:1018C400BDA42A143B0409F0D4CBCA80E980BBAC84
:1018D400BB2019F000913E2E01C00FEF40913C2E29
:1018E4004E5F2091402E60E07DE280E09CE20E9409
:1018F400C31E67E080E00E94F8400AA90038A1F402
:101904008091572E823009F05EC48091592E8370E5
:10191400833009F458C481E02696AFAC2697A826F4
:101924002696AFAE26974FC40AA9003419F4109234
:10193400572E5EC01AA9103621F481E08093572EE9
:1019440057C02AA9203A21F483E08093572E50C02F
:101954003AA9343469F5ABACAA200CF449C0AA20E6
:1019640059F081E48093030280E098E0809324019D
:101974009093250180E019C085E48093030280E000
:1019840094E0809324019093250180913C2E9091C2
:101994003D2E8C33914044F08BE391E080933C2EB8
:1019A40090933D2E83E001C083E080688BAF20C01C
:1019B4001AA9143641F4ABAC1A14D4F481E08A2584
:1019C40080688BAF15C0BAA8B1100AC00BAD0F77F1
:1019D4000BAF2C961FAD2C97112309F425C111C010
:1019E4002AA9243029F48091572E882309F421C18F
:1019F4002C96AFAC2C97AA2009F416C1BAA8B11042
:101A040013C180E09DE78F87988B80E093E88D87F2
:101A14009E8719861A861B861C861D821E821F823B
:101A240018868E010B5F1F4F9E01275F3F4FAE014B
:101A3400435F5F4FBE01615F7F4F80E090E20E9491
:101A4400E6204B015C012D96DFAC2D974D2C512CDB
:101A5400612C712CAD85BE85A30192010E94914237
:101A64006B017C0199232CF40FEFC00ED11CE11CF7
:101A7400F11CCD2CDE2CEF2CFF24E7FCFA94CD8650
:101A8400DE86AF85B889A30192010E9491428B0141
:101A94009C01992324F401501F4F2F4F3F4F772768
:101AA40037FD7A95632F522F412F498B5A8B6B8BBD
:101AB4007C8B4F87588B6D817E818F819885A301A4
:101AC40092010E94C14120E033E140E050E00E94D5
:101AD40077402D833E834F8358870D2C000CEE08EE
:101AE400FF08DA01C9018896A11DB11D8C159D0559
:101AF400AE05BF0594F029013A0168E2461A51087F
:101B040061087108E989FA89CF01FF0FAA0BBB0BA1
:101B140084159505A605B70564F480915C2E882389
:101B240061F0815080935C2E11E02C961FAF2C97AE
:101B340007C02C961FAE2C9703C02C961FAE2C9773
:101B4400DA01C9010F96A11DB11DC816D906EA060E
:101B5400FB06D4F469897A89CB01770FAA0BBB0BF6
:101B6400820F931FA41FB51F823F9F4FAF4FBF4FDC
:101B74005CF080915C2E863038F48F5F80935C2E0D
:101B840011E02C961FAF2C9720E482162CE99206C4
:101B9400A104B10458F480915A2E8C3038F48F5F2C
:101BA40080935A2E11E02C961FAF2C9721EA8216AF
:101BB40026E8920621E0A206B10458F080915A2E3C
:101BC400833038F0815080935A2E11E02C961FAF49
:101BD4002C9780915C2E282F30E040E0225C334F1C
:101BE4004F4F642FA901FA01F4912D96FFAF2D9761
:101BF40060915B2E653008F064E0853008F084E085
:101C04000E94D14180915A2E0E94273C4D815E81D1
:101C14006F81788580E890E0841B950B8093402E3B
:101C24009093412E4093582E8091572E882329F06B
:101C34008BC011E02C961FAF2C971BAD1170ABAC71
:101C4400A0FE03C060915B2E02C060915C2E809167
:101C54005A2E0E94893CBAA8BB2009F430C2609174
:101C64005A2E70E0CC24C3946894EE24E1F801E089
:101C74002EE030E040E050E08B2D0E94F83F80934E
:101C84005A2EDBACDD2029F0843018F484E08093F4
:101C94005A2E80915A2E0E94273C1123A1F0609164
:101CA4005B2E70E06894CC24C4F86894EE24E3F8C6
:101CB40001E026E030E040E050E08AA90E94F83FCD
:101CC40080935B2E13C060915C2E70E06894CC24EA
:101CD400C4F86894EE24E3F801E026E030E040E044
:101CE40050E08AA90E94F83F80935C2E60915B2E9D
:101CF400862F90E0A0E0825C934FAF4FFC01F491FB
:101D04002E96FFAF2E9780915C2E282F30E040E076
:101D1400225C334F4F4F8901242FF801F4912D9603
:101D2400FFAF2D97653008F064E0853008F084E05B
:101D34000E94D141AAA8AA200CF4C1C1A2FCBFC12F
:101D44002C961FAE2C97BBC1813009F053C0BBAC9D
:101D5400B0FE0EC060913E2E605880913C2E909152
:101D64003D2ECE970E94843FBB2009F462C235C247
:101D74006091402E605880913C2E90913D2ECE97DC
:101D84000E94843FDBACD1103EC269C260913E2EFA
:101D940070913F2E6894CC24C3F86894EE24E4F840
:101DA40004E02FEF30E040E050E08AA90E94F83FC1
:101DB40080933E2E90933F2E66EE7CE080E089C1B6
:101DC4006091402E7091412E6894CC24C3F868949D
:101DD400EE24E4F804E02FEF30E040E050E08AA97C
:101DE4000E94F83F8093402E9093412E60EE7CE059
:101DF40080E06FC1823009F07CC010915C2E812F8D
:101E040090E0A0E0825C934FAF4FFC014491A0911D
:101E1400582E0A2E000CBB0B28E833E10E94B54271
:101E2400242F30E040E050E00E947740CA01B9011D
:101E340004C095958795779567951A95D2F761159E
:101E4400F0E87F078105910554F4683203EA7007CE
:101E54000FEF800790072CF460E070E802C06FEF8A
:101E64007FE78091592E0E948436AAA8A1FE07C05C
:101E74008091592E803418F4805E8093592EBAA82C
:101E8400B0FE07C08091592E803218F080528093A2
:101E9400592E0AA90430B9F48091592E86FF05C041
:101EA40098E089278093592E0EC085FF05C094E0E1
:101EB40089278093592E07C091E0980F93708C7FE7
:101EC400892B8093592E6091582E062E000C770B87
:101ED4006894CC24C3F86894EE24E4F804E02FE773
:101EE40030E041E85FEF8AA90E94F83F8093582EC2
:101EF400E6C0833009F0E3C02F96DFAC2F97AD2CFA
:101F0400B12C88248394912C8C0E9D1E8A0C9B1CCE
:101F1400D4016C9170E06894CC24C1F8EE24E3946D
:101F240004E020E830E040E050E08AA90E94F83F55
:101F3400F40180836894CC24C3F86894EE24E4F814
:101F440001E021E030E040E050E0B5018AA90E94C0
:101F5400F83F2F968FAF2F97FA80198100915A2E50
:101F6400802F90E0880F991FA0E08756944FAF4FC1
:101F7400FC0125913491AF2D0F2C000CBB0BA11B40
:101F8400B10917FDB3950E94B542053040F5DC0157
:101F9400CB01880F991FAA1FBB1F4C015D01880C40
:101FA400991CAA1CBB1C880C991CAA1CBB1C880D60
:101FB400991DAA1DBB1D4C015D01BB232CF4F7E048
:101FC4008F0E911CA11CB11CA5019401689412F8F8
:101FD40055954795379527951694D1F71CC00A3027
:101FE400A0F44B015C0199232CF427E0820E911C90
:101FF400A11CB11CA5019401689412F8559547954C
:10200400379527951694D1F706C020E530E040E0D7
:1020140050E00E947740011109C0559547953795C6
:102024002795559547953795279506C0013021F496
:102034005595479537952795602FC9010E948F3D87
:102044003AA9343AE1F567E080E00E94F84066E797
:102054007CE080E00E94423F4F2D50E0411B51093B
:10206400E0E0F0E20F2EF0E0EF2EF4E2FF2EF02D90
:1020740020E030E0612F70E0C901892F992786950F
:102084008050944D860F971FDC018C9190E0805610
:1020940091090024969587950794969587950794BA
:1020A400982F802D81939193240F351FEE15FF05F2
:1020B40019F760E070E280E190E00E94BB3BABACBA
:1020C400A0FC04C060EE7CE080E003C066EE7CE02F
:1020D40080E00E94423F2696BFAC2697BB2021F0A9
:1020E40083E50E944B3E08C0DAA4D11002C082E509
:1020F40001C087E40E944B3E0AA9003211F00C94FF
:102104001107C3C00091582E20E10202800111245E
:102114008695869583708BA7E0913C2EF0913D2E99
:102124001F013FEF231A330A12F4212C312C7F01B3
:1021340045E8E41A4EEFF40A5CEFE51651E0F506C3
:1021440034F00F2EFBEFEF2EFF24F394F02DABAC05
:10215400AA2011F40C947A071AA621961FAE21978F
:102164000C94AF070F3708F098CB57C80F3708F413
:102174005CC893CBE8A5F9A5A081B181298D3A8DDE
:102184004B8D5C8D0E949142BB2797FDBA95A92F78
:10219400982F872FAD88BE88CF88D88C8A0D9B1D39
:1021A400AC1DBD1D8F3F9105A105B10529F024F09B
:1021B4008FEF90E0A0E0B0E0BB230CF050CB80E0C8
:1021C40090E0DC014CCB82E08093572E2C96BFAC80
:1021D4002C97BB2009F411CE11CC60913C2E709148
:1021E4003D2E6894CC24C1F8EE24E39405E02BE35F
:1021F40031E045EC5EEF8AA90E94F83F80933C2EC3
:1022040090933D2EC3CD60913C2E70913D2E6894E9
:10221400CC24C1F8EE24E39405E02BE331E045EC53
:102224005EEF8AA90E94F83F80933C2E90933D2E46
:10223400C7CD60913C2E70913D2E6894CC24C1F89A
:10224400EE24E39405E02BE333E045EC5EEF8AA94A
:102254000E94F83F80933C2E90933D2E97CD609141
:102264003C2E70913D2E6894CC24C1F8EE24E39466
:1022740005E02BE333E045EC5EEF8AA90E94F83FCA
:1022840080933C2E90933D2E9BCDC05BDF4FCDBF02
:10229400DEBFDF91CF911F910F91FF90EF90DF9000
:1022A400CF90BF90AF909F908F907F906F905F90F2
:0822B4004F903F902F90089518
:1022BC002F923F924F925F926F927F928F929F924A
:1022CC00AF92BF92CF92DF92EF92FF920F931F9338
:1022DC00CF93DF93CDB7DEB72C97CDBFDEBFE0E059
:1022EC00F1E080898068808B1F821C8623E030E0BF
:1022FC002D833E8332E03A834AE050E04A875B8785
:10230C001886198619821B821C82FBC5052F162F75
:10231C00272F332780169106A206B30620F4041942
:10232C001509260937094C0D5D1D6E1D7F1D000F0B
:10233C00111FF801E050F84D808191819C01220F12
:10234C00331F820F931F88E6890F8D932A163B0645
:10235C00E9F60F2EF1E8CF2EF02DEB800FEF2C814C
:10236C0040E060E070E080E09CE20E94C31E0E94AE
:10237C009B30B82E50E4851709F438C680E6B816A1
:10238C0009F436C690E8B91609F435C6E0EABE166B
:10239C0009F434C6F4E4BF1208C060E170E080E0D8
:1023AC0098E20E94D43AB12C12C024E6B2120FC0AB
:1023BC0067E080E00E94F84064E67CE080E00E94E8
:1023CC00423F60E078E280E190E00E94BB3B80916C
:1023DC00512E833009F0A9C03F81332309F406C183
:1023EC008FEF8093460660913A2E70913B2EE0E081
:1023FC00F8E240E054E010C0CA0120E030E09695CD
:10240C0087952F5F3F4F80FFFACF21934F5F5F4F30
:10241C00411588E0580729F040FFEECF20E030E06E
:10242C00F4CFCB010F921F922F923F929F92AF92BB
:10243C00CF92DF92EF92FF920F932F933F934F9394
:10244C005F936F937F93AF93BF93CF93DF93EF9390
:10245C00FF936FEF77E0681B790B880F991F880F3C
:10246C00991F880F991F880F991F880F991FEE24A9
:10247C0022240BE0E0E0FCE2E1920A95E9F7D1E0DE
:10248C00CD2ED0E0DD2EED2ED0EDFD2E21E030E076
:10249C0040E050E09924AA24E0E0F8E2DCE231903C
:1024AC00FC3209F4F8E2C32D088020FF08C05695D1
:1024BC0047953795279500912806056F08C05695C6
:1024CC004795379527952C253D254E255F25588317
:1024DC009018A208950EA21CBB27A89EA12D999E10
:1024EC00A10DBB1FA99EA00DB11DA60FB71FA093D8
:1024FC003803B09339030F3F91F2FF91EF91DF91C5
:10250C00CF91BF91AF917F916F915F914F913F911F
:10251C002F910F91FF90EF90DF90CF90AF909F9005
:10252C003F902F901F900F9061C0843009F05EC0D7
:10253C009F81992309F45AC08FEF809346068091AE
:10254C003A2E90913B2E0F921F92CF92DF92EF92E8
:10255C00FF920F932F933F934F935F936F937F93C0
:10256C00CF93DF936FEF77E0681B790B880F991F80
:10257C00D1E0CD2ED0E0DD2EED2ED0EDFD2E21E0E4
:10258C0030E040E050E0E89420FF08C056954795B5
:10259C003795279500912806056F08C056954795E5
:1025AC00379527952C253D254E255F25DD27589FF2
:1025BC00C12D499FC10DDD1F599FC00DD11DC60FE7
:1025CC00D71FC0933803D09339030F3FE9F2DF9143
:1025DC00CF917F916F915F914F913F912F910F917F
:1025EC00FF90EF90DF90CF901F900F9067E080E00E
:1025FC000E94F840E981E1119CC163E77DE080E035
:10260C000E94423F60912E2E70912F2E8091302E81
:10261C009091312E4D810E94B9286FE27DE080E0CF
:10262C000E94423F6D81685080913A2E90913B2ED2
:10263C000E94D92D60E77DE080E00E94423FBB20E4
:10264C0009F45FC46894CC24C1F8EE24E39402E04E
:10265C002DE030E040E050E06D817E818B2D0E94BA
:10266C00F83F182F8D839E836894CC24C3F868940C
:10267C00EE24E4F804E02AE030E046EF5FEF60E09F
:10268C0070E08B2D0E94F83F082F2D813E81293060
:10269C003105B0F08BEF810F0E94F23B9B01AC0136
:1026AC00A02F000FBB0B0E94914220913A2E30912B
:1026BC003B2E620F731F60933A2E70933B2E20C0FB
:1026CC00812F0E94F23B9B01AC01A02F000FBB0B92
:1026DC000E949142C0902E2ED0902F2EE090302E42
:1026EC00F090312EDC01CB018C0D9D1DAE1DBF1D5C
:1026FC0080932E2E90932F2EA093302EB093312EAC
:10270C0080913A2E90913B2E813533EC930728F033
:10271C0010923A2E10923B2E09C081349C4930F015
:10272C0080E49CE980933A2E90933B2E80912E2E40
:10273C0090912F2EA091302EB091312EAC01BD0175
:10274C0042535109610971094F3C56486349734022
:10275C0080F082E380932E2E10922F2E1092302E2A
:10276C001092312E2D813E812930310508F431C46F
:10277C00C8C08138904FAA4FB24098F080E890EFD3
:10278C00AAEFB2E080932E2E90932F2EA093302E92
:10279C00B093312E4D815E814930510508F4D7C379
:1027AC00B0C08D819E81099708F0ABC0C0902E2ED1
:1027BC00D0902F2EE090302EF090312E60E870EFFC
:1027CC008AEF92E0A70196010E94203FDA01C9012D
:1027DC00880F991FAA1FBB1F8115E2E09E07A10558
:1027EC00B10548F48093262E9093272EA093282E83
:1027FC00B093292E09C01092262E82E08093272EAA
:10280C001092282E1092292E4090262E5090272E72
:10281C006090282E7090292E60E070E28CEB9EEB7D
:10282C00A30192010E94203FCA01B901A7019601A0
:10283C000E94203FC22ED32EE42EF52E20932A2E5A
:10284C0030932B2E40932C2E50932D2E60E070E263
:10285C008CEB9EEBA70196010E94203FCA01B901A7
:10286C00A30192010E94203F29013A012138304FE7
:10287C004A4F5240E8F080E280932A2E10922B2E81
:10288C0010922C2E10922D2E82E08093262E1092D8
:10289C00272E1092282E1092292E0F2EF0E84F2E54
:1028AC00F0EF5F2EFAEF6F2EF2E07F2EF02D17C0B7
:1028BC00C114D10421E0E206F10488F0F694E79407
:1028CC00D794C794C0922A2ED0922B2EE0922C2E05
:1028DC00F0922D2E82E0E0E0F9E0808304C081E0EC
:1028EC00E0E0F9E0808366E080E00E94F8406DE66D
:1028FC007DE080E00E94423F412FC301B2010E9463
:10290C00B9280091382E1091392E2091522E30E09A
:10291C0040913A2E50913B2EE6E2FEE260817181AD
:10292C00E090512E80912A2E90912B2E0E94632A9A
:10293C00E4C2F981F13009F0CCC08091512E853080
:10294C0009F070C06AE27CE080E00E94423F88851A
:10295C0099850E94123A6BE27DE080E00E94423F32
:10296C008A859B8598500E94CE40E6E2FEE220814B
:10297C0031816894CC24C1F8EE24E39401E040E06A
:10298C0050E0688579858B2D0E94F83F8887998760
:10299C00B2FC09C0FC01EE0FFF1FE050F84D208186
:1029AC0031812A873B876894CC24C3F86894EE2441
:1029BC00E4F808E220E030E140E050E06A857B85F5
:1029CC008B2D0E94F83F8A879B87E885F985EE0F4F
:1029DC00FF1FE050F84D8083918348855985CA01CB
:1029EC00A0E0B0E06627782F892F9A2FE6E2FEE26E
:1029FC0040815181FA81F49F9001F59F300D112493
:102A0C0040E050E00E94203F2E5F2B838A859B85FF
:102A1C00082E892F000C881F990B000C881F991FFA
:102A2C008C836BC266EB7CE080E00E94423F80911D
:102A3C00522E0E940F3B6BE57CE080E00E94423FEF
:102A4C008091382E9091392E0E94CE40BB2009F4F3
:102A5C00BCC26091522E70E06894CC24C1F8EE2474
:102A6C00E39403E023E630E041E050E08B2D0E943C
:102A7C00F83F8093522E6091382E7091392E6894C5
:102A8C00CC24C3F86894EE24E4F804E120ED37E09C
:102A9C0040E358EF8B2D0E94F83F8093382E909393
:102AAC00392E2091522E30E040913A2E50913B2EEF
:102ABC00E6E2FEE260817181E090512E8C01809102
:102ACC002A2E90912B2E0E94632A1B82F0E8FC8305
:102ADC0014C22981223009F093C13C85832E912C9C
:102AEC00C401880F991F880D991DA0E0BC018A2F85
:102AFC006359734F8F4F0E94423F6DE97CE080E039
:102B0C000E94423F8091502E44E6849FC0011124C4
:102B1C00880F892F881F990B91950E940F3B60EBB2
:102B2C007CE080E00E94423F60E080913A2E9091E0
:102B3C003B2E0E94D92DB11040C10F2EFAE2CF2EA0
:102B4C00FEE2DF2EF02D0F2E22242A94FFE03F2EE2
:102B5C00F02D0E949B30B82E8C85811184C0E090A2
:102B6C002A2EF0902B2E00912C2E10912D2E9701A9
:102B7C008091502EE0E28E9FC0011124880F892F86
:102B8C00881F990B91958096A0E0B0E08E159F055B
:102B9C00A007B10768F14090262E5090272E609028
:102BAC00282E7090292EF4E04F1651046104710404
:102BBC00F8F0A091382EB091392E2091522E30E0A1
:102BCC0040913A2E50913B2EC301B20196958795B8
:102BDC0077956795F701EE0FFF1FE090512E8D0151
:102BEC00CF010E94632AF60120813181220F331F0D
:102BFC002901612C712C32C00E946942DC01A301B5
:102C0C0092010E9491429B01AC01A091502EB0E028
:102C1C000E944042DC01CB01072E72E1B595A795CD
:102C2C00979587957A95D1F7702D840D951DA61DD6
:102C3C00B71D009721E0A207B10554F4803291052D
:102C4C00A105B1053CF480E290E0A0E0B0E002C048
:102C5C008FEF9FEF80932609909327090E949B305A
:102C6C00882351F2A7C04C85413009F054C04DC0A7
:102C7C0040913A2E50913B2E2A01612C712C0E94CE
:102C8C006942DC01A30192010E9491429B01AC01BB
:102C9C00689412F855954795379527951694D1F762
:102CAC00A091502EB0E00E944042AB01BC01032E1B
:102CBC003FE075956795579547953A95D1F7302D27
:102CCC00440D551D661D771D77231CF440E050E024
:102CDC00BA010091382E1091392E2091522E30E0ED
:102CEC0041348CE958076105710514F040E45CE946
:102CFC00E6E2FEE280819181E090512EBC01F6016A
:102D0C00808191810E94632A00C00E949B3088239D
:102D1C0009F4AECF4FC03C85323009F04BC0A091C6
:102D2C00502E20912A2E30912B2E40912C2E5091EA
:102D3C002D2EB0E00E9440422B013C0137C0BB2736
:102D4C0077FCBA95A72D962D852D0196A11DB11D49
:102D5C00A3019201281B390B4A0B5B0BCA01B90169
:102D6C0020912A2E30912B2E40912C2E50912D2ECD
:102D7C00621773078407950728F4A091502EB0E0D2
:102D8C000E9440422B013C01611571058140910567
:102D9C0034F044244A9455245A94612C712C40925A
:102DAC00260950922709C1010197F1F70E949B3027
:102DBC00882329F2BB2009F4CCCE6091502E70E010
:102DCC006894CC24C3F86894EE24E4F803E02FEF65
:102DDC0030E041E050E08B2D0E94F83F8093502E64
:102DEC006894CC24C1F8EE24E39401E022E030E0B6
:102DFC0040E050E0B4018B2D0E94F83F8C877DC0E1
:102E0C005981533009F079C066E97CE080E00E947A
:102E1C00423F8091512EEBE08E9FC0011124A0E027
:102E2C00BC018A2F6050764F8F4F0E94423F67E261
:102E3C007DE080E00E94423F8A810E940F3BB3FEFE
:102E4C000FC08091512E882329F081508093512EF0
:102E5C001F8206C086E08093512EB4FC0BC0C2C00A
:102E6C00B4FE0FC08091512E91E0980F9093512E8B
:102E7C00863030F01092512EB2FC09C01F822CC04B
:102E8C001F82B2FE29C08091512E863061F0809154
:102E9C002103811108C00E943542E6E2FEE28081E6
:102EAC0091810E94B9400091382E1091392E2091B9
:102EBC00522E30E040913A2E50913B2EE6E2FEE24B
:102ECC0060817181E090512E80912A2E90912B2E51
:102EDC000E94632AF1E0FF832A81622F70E06894DC
:102EEC00CC24C1F8EE24E39401E024E030E041E08E
:102EFC0050E08B2D0E94F83F8A8330E2B31609F420
:102F0C0080C04090262E5090272E6090282E7090D6
:102F1C00292E4A81A42FB0E0A30192010E944042C5
:102F2C006B017C015301420151E0851A9108A10803
:102F3C00B108A0E0BCE20F2EF0E82F2EFCE23F2EF1
:102F4C00F02DAB01BC0100E010E09801F0C982E06B
:102F5C008093262E1092272E1092282E1092292E16
:102F6C004090262E5090272E6090282E7090292E5F
:102F7C0060E070E28CEB9EEBA30192010E94203F7B
:102F8C00CA01B90120E830EF4AEF52E00E94203F1D
:102F9C00C22ED32EE42EF52E20932A2E30932B2ED8
:102FAC0040932C2E50932D2E60E070E28CEB9EEB18
:102FBC00A70196010E94203FCA01B901A301920109
:102FCC000E94203F29013A0173CC1B8280E88C833C
:102FDC0098CFC0902E2ED0902F2EE090302EF090C7
:102FEC00312E09CCB2FC5FCF1F8276CF1982EFC98C
:102FFC0091E09983ECC9E2E0E983E9C9F3E0F98354
:10300C00E6C92C96CDBFDEBFDF91CF911F910F91FA
:10301C00FF90EF90DF90CF90BF90AF909F908F90EC
:0E302C007F906F905F904F903F902F9008958F
:10303A002F923F924F925F926F927F928F929F92BE
:10304A00AF92BF92CF92DF92EF92FF920F931F93AC
:10305A00CF93DF93CDB7DEB7AA97CDBFDEBF8D8FF3
:10306A009E8F162F072F9C5F8DA39EA32D8D3E8DBD
:10307A002FA338A7790119821A820F2EFEE0DF2EBC
:10308A00F02D0F2EFDEB8F2EF9EE9F2EF7E0AF2ECF
:10309A00B12CF02DD7014D905C90052C000C6608E0
:1030AA00770889819A818E7FFC01F395CF01A0E090
:1030BA0088539D4FAF4FFC0125913491D29EC00198
:1030CA00D39E900D1124092E000CAA0BBB0BA5014F
:1030DA009401281B390B4A0B5B0BC301B2010E94F6
:1030EA00C141F701819391937F0129813A812F5F31
:1030FA003F4F29833A832115344061F66D8D7E8DC9
:10310A007395ED8CFE8CC12CD12CA701585F9701C9
:10311A003BC0A280B380D401AD92BD924D01A08084
:10312A00B180DC01AD92BD92CD013496E617F70766
:10313A0081F7B0E8CB16B3E0DB0608F091C357017C
:10314A00E0E8AE0EB11CFB0181919191D5018D93FE
:10315A009D935D014E175F07B9F782C3D3018D9125
:10316A009D913D01819391934E175F07B9F7B0E4A2
:10317A00CB0ED11C60587F4FE0E8EE0EF11CC11453
:10318A00F2E0DF0609F465C1612E702EC701812EB7
:10319A00902EF701BECF612C712C1B8E1C8E1F8EB8
:1031AA0018A2F301EE0FFF1FCF01A0E088539D4F35
:1031BA00AF4FFC0185919491880F892F881F990B35
:1031CA009C01990F440B550B2B873C874D875E87D3
:1031DA00C30180589F4FFC01EE0FFF1FCF01A0E0F3
:1031EA0088539D4FAF4FFC0185919491880F892F89
:1031FA00881F990B9C01990F440B550B2F87388B0D
:10320A00498B5A8B48E020E030E0220F331FC3017C
:10321A0081709927282B392B769467944150A9F706
:10322A002F5F3F4F48E0612C712C660C771CC90157
:10323A0081709927682A792A369527954150A9F7E6
:10324A004114510409F4D1C02F88388C220C331C44
:10325A004D8D5E8D420D531D49875A875CEF351A95
:10326A008D8D9E8D280E391E0B8D1C8D000F111F02
:10327A00800F911F1C5FAD8DBE8D0A0F1B1FE98544
:10328A00FA85EB8BFC8BE12CF12C89A79AA7E985AF
:10329A00FA85C190D190E987FA879601DD0C440B33
:1032AA00550B29833A834B835C83D1018D909C9083
:1032BA009401990C440B550B2D833E834F835887F9
:1032CA00A9A5BAA5ED91FC912F85388949895A8912
:1032DA0069817A818B819C810E94C141BB2797FDBC
:1032EA00BA95A92F982F872F4F010F2E000CAA08E5
:1032FA00BB08880E991EAA1EBB1E2B853C854D85D0
:10330A005E856D817E818F8198850E94C141BB2730
:10331A0097FDBA95A92F982F872F880D991DAA1D59
:10332A00BB1DB595A795979587959F01281B390BC6
:10333A00EB89FC8921933193EB8BFC8BE9A5FAA5E8
:10334A0081939193E9A7FAA7D801ED91FC912F8572
:10335A00388949895A896D817E818F8198850E9431
:10336A00C141BB2797FDBA95A92F982F872F4F01E7
:10337A000F2E000CAA08BB08880E991EAA1EBB1E97
:10338A002B853C854D855E8569817A818B819C81FF
:10339A000E94C141BB2797FDBA95A92F982F872F65
:1033AA00881A990AAA0ABB0AB594A794979487948B
:1033BA00E819F909D101ED93FD931D01F8018192F4
:1033CA0091928F01FFEFEF1AFF0AE414F50409F056
:1033DA005ECF2B8D3C8D240D351D2B8F3C8F4F8955
:1033EA00588D440D551D4F8B588F8B8D9C8D840D98
:1033FA00951D8B8F9C8FAF89B88DA40DB51DAF8B92
:10340A00B88FEF8DF8A13196EF8FF8A329A13AA1D1
:10341A00E217F30709F0C5CE49A15AA1440F551F77
:10342A0049A35AA3C201969587958F8B988FABA112
:10343A00BCA11197ABA3BCA3AB2BD9F4EDA1FEA100
:10344A0040E050E04F015F01AFA1B8A50D8D1E8D80
:10345A009AC0E9E0F0E0EBA3FCA3412C5524539475
:10346A0021E030E029A33AA340E051E04F8B588F86
:10347A0002C04F88588C89A19AA1892B09F08BCE5A
:10348A00CBCF880F991F7B01E1E0EE22FF248E2922
:10349A009F29769567952150A1F78417950708F417
:1034AA0068C0BA0129E080E090E0880F991F7B018B
:1034BA00F1E0EF22FF248E299F2976956795215006
:1034CA00A1F7880F991F800F911FFC0160817181FC
:1034DA007A0129E080E090E0880F991F6701F1E006
:1034EA00CF22DD248C299D29F694E7942150A1F757
:1034FA002D913C911197880F991F800F911FFC0104
:10350A00208331836D937C931197BA0129E080E07F
:10351A0090E0880F991F7B01F1E0EF22FF248E29AA
:10352A009F29769567952150A1F7880F991F880DD5
:10353A00991DFC01608171817A0129E080E090E0A7
:10354A00880F991F6701F1E0CF22DD248C299D297C
:10355A00F694E7942150A1F7F50120813181880F73
:10356A00991F880D991DFC0120833183F501608321
:10357A0071834F5F5F4FF2E0AF0EB11C1296411597
:10358A0022E0520729F0BA0129E080E090E079CFE1
:10359A00ED8DFE8DFC5FAD8DBE8D2D913C918081B0
:1035AA009181D901A80FB91F108211829D010E9431
:1035BA008942689415F89595879577956795169435
:1035CA00D1F70E94C03F90E0ED8DFE8D81939193DB
:1035DA00E983FA830D8D1E8D02501C4F2D8D3E8D71
:1035EA002E5F3B4F2B8F3C8F4D8C5E8C32E0431A03
:1035FA0038EF530A4B8D5C8D4D8F5E8F4F8F58A3DA
:10360A0066246394712CA981BA810D90BC91A02D76
:10361A00AF8BB88FF80120803180CD0182199309D0
:10362A009C01990F440B550B2D833E834F8358877A
:10363A00AF8DB8A1ED91FD91AF8FB8A3E987FA8755
:10364A00D201AD90BC90CF018A0D9B1D9C01990FB0
:10365A00440B550B2B873C874D875E87C301969594
:10366A008795FC01EE0FFF1F9F0140E028533D4F55
:10367A004F4F642FA901FA0185909490880C892CE8
:10368A00881C99089401990C440B550B2F87388B89
:10369A00498B5A8B80589F4FFC01EE0FFF1FCF01B9
:1036AA00A0E088539D4FAF4FFC01C590D490CC0C3D
:1036BA00CD2CCC1CDD08C601DD0CAA0BBB0B8B8BF9
:1036CA009C8BAD8BBE8B2B853C854D855E85BC0165
:1036DA00CD010E94C141C72ED82EE92EFF24E7FC56
:1036EA00FA94AF89B88D2A0E3B1E2D813E814F81F7
:1036FA0058856F85788989899A890E94C141272FBF
:10370A00382F492F552747FD5A952F8B388F498FC8
:10371A005A8FC1018C0D9D1D821B930BA981BA8101
:10372A008D939C93E985FA85EA19FB09E987FA875B
:10373A002B853C854D855E856F85788989899A892F
:10374A000E94C141872E982EA92EBB24A7FCBA94A9
:10375A002D813E814F8158856B897C898D899E890F
:10376A000E94C141BB2797FDBA95A92F982F872F91
:10377A009F0128193909281B390BED8DFE8D2193DC
:10378A003193ED8FFE8F2F89388D220E331E2C1820
:10379A003D08F80120823182BC01680D791DE98556
:1037AA00FA85E60FF71FF195E195F109D201ED933C
:1037BA00FC93EB8DFC8DA191B191EB8FFC8FE9818C
:1037CA00FA81408151819D010E9489426B017C01ED
:1037DA009A01DA010E948942DC01CB018C0D9D1D00
:1037EA00AE1DBF1D692F7A2F8B2F992787FD9A95BA
:1037FA000E94C03F90E0A981BA818D939D93A983CD
:10380A00BA83F201A081B181F801408151819D0101
:10381A000E9489426B017C019A01DA010E94894265
:10382A00DC01CB018C0D9D1DAE1DBF1D692F7A2FAA
:10383A008B2F992787FD9A950E94C03F90E0D80167
:10384A008D939C93BFEF6B1A7B0A02501109E2E039
:10385A004E1A5108F1E06F167F0609F0D4CE04C063
:10386A00F901E058F84F7ACCAA96CDBFDEBFDF91B6
:10387A00CF911F910F91FF90EF90DF90CF90BF9063
:10388A00AF909F908F907F906F905F904F903F90F6
:04389A002F900895CE
:10389E002F923F924F925F926F927F928F929F9252
:1038AE00AF92BF92CF92DF92EF92FF920F931F9340
:1038BE00CF93DF93CDB7DEB76B97CDBFDEBF80E082
:1038CE0093E889839A8380E09DE78B839C83E12C28
:1038DE0002E00B8BC12C212C33243394DD24D394A2
:1038EE00EE860E949B308D87F10180A1806880A3B7
:1038FE007894E8E4F0E0D082889519861A861B86C3
:10390E001C861D821E821F82188680E090E20E9415
:10391E006D414091552E453008F044E020E060E0C6
:10392E0080E090E20E94CD398E010B5F1F4F9E0109
:10393E00275F3F4FAE014F5F5F4FBE016D5F7F4F01
:10394E0080E090E20E94E6204B015C0189819A8121
:10395E00893FF7E09F072CF42B813C812830384FAC
:10396E003CF42091552E222319F021502093552EF0
:10397E00803213E0910764F42B813C81213E3C4F51
:10398E003CF02091552E243018F42F5F2093552EA5
:10399E002091552E64E0269FA00111244360409390
:1039AE0020023091542E3F5F3093542E3D3008F458
:1039BE0093C1EE84E11090C149855A856B857C8553
:1039CE007A018B01022E04C016950795F794E794A1
:1039DE000A94D2F7EC8AFD8A0E8B1F8BE986FA8643
:1039EE000B871C874D815E816F8178857A018B01F3
:1039FE00022E04C015950795F794E7940A94D2F712
:103A0E00E88EF98E0A8F1B8FED82FE820F83188748
:103A1E004B805C80052C000C66087708B301A20170
:103A2E00440F551F661F771F440F551F661F771FC4
:103A3E007A018B01EE0CFF1C001F111FEE0CFF1CF8
:103A4E00001F111F4E0D5F1D601F711F4419550978
:103A5E00660977097A018B01022E04C01595079528
:103A6E00F794E7940A94D2F7EF86F88A098B1A8BAB
:103A7E00EB82FC82092E000CAA0BBB0B2C013D0124
:103A8E00440C551C661C771C440C551C661C771C7C
:103A9E00B301A201440F551F661F771F440F551F18
:103AAE00661F771F440D551D661D771D481B590B4C
:103ABE006A0B7B0B04C075956795579547952A95AC
:103ACE00D2F749835A8304E0C09EC0011124FC0141
:103ADE00E050F44DEC88FD880E891F89E082F1825A
:103AEE0002831383FC01E05FF34D088D198D2A8D3F
:103AFE003B8D0083118322833383FC01E05EF34D03
:103B0E00052E000C660B770B408351836283738303
:103B1E00FC01E05DF34D2F853889A901330F660B4B
:103B2E00770B4083518362837383880C991CAA1C84
:103B3E00BB1C4091562E50E0FA01EE0FFF1F9F0165
:103B4E0040E02756344F4F4F642FA901FA012591BB
:103B5E0034918C01005C134D40E050E0C501B4017E
:103B6E000E94203FF8012083318342835383C39404
:103B7E00EB88CE1408F49FC060E080E00E94F8400D
:103B8E006EE17DE080E00E94423F6B8980E09CE226
:103B9E000E943E3DCB010E944B326D2D80E00E9473
:103BAE00F84069E17DE080E00E94423F6B8980E150
:103BBE009CE20E943E3DCB010E94E34062E080E029
:103BCE000E94F84064E17DE080E00E94423F6B89F4
:103BDE0080E29CE20E943E3D69837A83CB010E9483
:103BEE00E3406AED7CE080E00E94423F6B8980E317
:103BFE009CE20E943E3D6B837C83CB010E94E3409E
:103C0E0063E080E00E94F8406FE07DE080E00E947B
:103C1E00423F89819A812B813C81821B930B0E94AA
:103C2E004B3264E080E00E94F84064ED7CE080E07E
:103C3E000E94423F6B8980E49CE20E943E3D613AC5
:103C4E0006E8700701E08007910578F028EE33E072
:103C5E0040E050E00E94203FC9010E941A346FE4F8
:103C6E007DE080E00E94423F07C00E94112D68E86F
:103C7E007DE080E00E94423F66E080E00E94F840D6
:103C8E006AE07DE080E00E94423F8091562E8530B2
:103C9E0038F0853049F0883058F0DB8AC12C0BC0E3
:103CAE0014E01B8BC12C07C023E02B8BC12C03C04F
:103CBE0032E03B8BC12C40E05DE74B835C8360E0E0
:103CCE0073E869837A8372E07093562E1092542EA5
:103CDE008D85803899F510C09E85913049F466E047
:103CEE0080E00E94F84065E07DE080E00E94423F67
:103CFE00ED85E03841F404C0812C912C540183945D
:103D0E00EE84ED24EE8681149104A104B10441F4F5
:103D1E008091562E8C3090F48F5F8093562E0EC06D
:103D2E0001E3801605E79006A104B10438F08091F6
:103D3E00562E833018F081508093562E8091562E39
:103D4E000E94273C1D85103209F0CBCD6B96CDBF5E
:103D5E00DEBFDF91CF911F910F91FF90EF90DF901B
:103D6E00CF90BF90AF909F908F907F906F905F900D
:083D7E004F903F902F90089533
:103D86002F923F924F925F926F927F928F929F9265
:103D9600AF92BF92CF92DF92EF92FF920F931F9353
:103DA600CF93DF93CDB7DEB76997CDBFDEBF5C019A
:103DB6004B01342E102F5E2C4C2C322F30953F8326
:103DC600832F877091E0492F01C0440F8A95EAF747
:103DD6004B87522F51955887852F8770692F01C0C1
:103DE600660F8A95EAF76C878EEF782F721B7987B4
:103DF600272F2770E92F01C0EE0F2A95EAF7ED87E6
:103E0600302F3095232F2770F92F01C0FF0F2A95E9
:103E1600EAF7FA87202F2195422F4770592F01C0C4
:103E2600550F4A95EAF75E87801B482F477001C0F9
:103E3600990F4A95EAF79F876CE070E06D837E8361
:103E4600632C712C73017FEFE71AF70AF3013197A0
:103E5600E88BF98B387F432F50E04A8B5B8B287FAA
:103E6600622F70E06C8B7D8B887FE82FF0E0EE8B05
:103E7600FF8B032DFD81F9836F2F6C5080E00E942C
:103E8600F8402D813E81220F331F220F331F220F50
:103E9600331F288F398F6894CC24C1F8D12C222463
:103EA6002394312C398131703B839C2D5FEFA51A09
:103EB600B50AF501319740814095F501508150953D
:103EC600242F287F30E0688D798D2617370709F073
:103ED60032C1842F8770722D01C0770F8A95EAF759
:103EE600872F451720F05417B8F02AC080E0242FFA
:103EF600287F30E0688D798D6217730749F4242F87
:103F06002770F10102C0EE0FFF1F2A95E2F78E2BF4
:103F16004F5F451760F314C0252F287F30E0E88DEA
:103F2600F98DE217F30749F4252F2770B10102C076
:103F3600660F771F2A95E2F7862B5F5F4513ECCF56
:103F46001F3F09F44BC0A4014F5F5F4FF40160812E
:103F5600609571817095262F287F30E0E88DF98D68
:103F6600E217F30709F0ECC0262F2770F10102C013
:103F7600EE0FFF1F2A95E2F78E2B671720F07617B4
:103F8600C0F04A012BC0262F287F30E0E88DF98D3E
:103F9600E217F30749F4262F2770F10102C0EE0F4E
:103FA600FF1F2A95E2F78E2B6F5F671760F34A01B2
:103FB60015C0272F287F30E0E88DF98DE217F3072B
:103FC60049F4272F2770F10102C0EE0FFF1F2A9533
:103FD600E2F78E2B7F5F6713ECCF4A01292F2F70F4
:103FE60019F43B8131118068292F237021F449810E
:103FF6004F3009F48068903409F4886809130AC0C0
:1040060059815C3009F0A0C08F60CE14DF0409F03E
:10401600ADC00DC0A6019301CE14DF0429F02150D6
:1040260031092417350721F469816C3009F484605D
:10403600591201C08868491201C088680E942D4043
:104046007FEFC71AD70A80E8C816D10409F02DCF2A
:1040560080E00E942D408F81887F90E0288D398DE9
:104066002817390711F49B8501C090E0292E8C850D
:10407600892B2885287F30E0488D598D42175307B4
:1040860009F0892F3D84382A2985287F30E0688DFC
:10409600798D6217730709F4832D382ED12CCC2421
:1040A600C394A982BA82B42C402E0C2DEB82FC82DA
:1040B600F52C512E1D2DCA88DB8802C00F5F1F5FAD
:1040C600113009F44CC09FEF59125FC0822D18C001
:1040D6001130B1F401C08A85E88DF98D2C893D89AE
:1040E600E217F30711F43E85832B488D598D6E89AF
:1040F6007F8946175707B9F57F85872B34C08A8590
:104106000E942D400430D0F2042D152D5F2C4B2C2F
:10411600A980BA80EB80FC808EE7A81AB1089EE7DA
:10412600891A9108ED81FE813196ED83FE8373979E
:1041360009F0A0CE32C0451708F4D8CE80E0D3CE21
:10414600671708F420CF1BCFA6019301CE14DF0416
:1041560009F065CF6DCF832D0E942D40AFCFFFEFC5
:104166005F120BC0F8CF0E942D40A8CF488959890D
:10417600C416D50609F05CCF5ACF688D798D6C15BB
:104186007D0509F4A8CF832DA3CF888D998D8C1535
:104196009D0509F4B4CF822D9BCF6996CDBFDEBFB6
:1041A600DF91CF911F910F91FF90EF90DF90CF900D
:1041B600BF90AF909F908F907F906F905F904F9041
:0641C6003F902F900895C8
:1041CC002F923F924F925F926F927F928F929F921B
:1041DC00AF92BF92CF92DF92EF92FF920F931F9309
:1041EC00CF93DF93CDB7DEB72897CDBFDEBF4C01A1
:1041FC0059016C017C0128EFF21AFC013F0180810E
:10420C009181DA012D913C9111972817390714F4FB
:10421C008D939C93D3018D919C913296DB012D91C2
:10422C003C9111978217930714F48D939C93EE1580
:10423C00FF0521F7FA0180819181DB012D913C91E1
:10424C006BE0629FA001639F500D11249C01220F13
:10425C00331F220F331F280F391F240F351F35959D
:10426C002795359527953595279535952795F901FA
:10427C00EE0FFF1FEE0FFF1FE20FF31F689FA00151
:10428C00699F500D1124E40FF51FF595E795F595F1
:10429C00E795F595E795F595E795D901AE0FBF1F15
:1042AC00BB230CF411963D017594679440E0F12CFE
:1042BC0080E090E050E0511109C051E0D6016D91C1
:1042CC007C916217730734F150E024C05130C9F46B
:1042DC00D6016D917C9166167706E4F46F2D70E033
:1042EC00660F771FEE24E394F12CEC0EFD1E6E0D81
:1042FC007F1DDB018D939C934F5FFF24F39452E061
:10430C0009C0523039F4D6016D917C91E617F7074C
:10431C000CF450E0453640F40196B2E0CB0ED11CC3
:10432C00811564E0960739F6423008F4C2C0EB8080
:10433C00FC80C980DA8097012C193D09AAEFB0E006
:10434C000E94FE41242F30E021503109032E000C35
:10435C00440B550B0E94203F60E07AEC8AE99BE30A
:10436C000E94203FCE14DF0408F4B0C00F2EEE24C0
:10437C00EA94F3E0FF2EF02DC12CD12CA7C0F6014E
:10438C00EE0FFF1FCF01880D991D8F839887A60113
:10439C008F809884F401A191B191EF83F8879D01EE
:1043AC000E948942D5014D905D906D907C90DC010E
:1043BC00CB01840D951DA61DB71DF501808391833E
:1043CC00A283B383D4018D919C91092E000CAA0B6E
:1043DC00BB0BF8014080518062807380840D951D69
:1043EC00A61DB71D80839183A283B3834F5F5F4F5C
:1043FC004E155F0568F2D5016D917D918D919C9163
:10440C00603CB8ED7B07B7EA8B07910508F063C0F9
:10441C00F701EC19FD09A9E6B1E09B01AC010E9482
:10442C0040426F01E12CF12CA70196010E94203F24
:10443C00D5012D933D934D935C931397F8012081F7
:10444C0031814281538139014A01660C771C881CE9
:10445C00991C660C771C881C991CD401C301880F0D
:10446C00991FAA1FBB1F880F991FAA1FBB1F860D60
:10447C00971DA81DB91DBC01CD01621B730B840BCC
:10448C00950BA70196010E947740D8012D933D937F
:10449C004D935C931397F5016081718182819381B7
:1044AC000E949E37D5016D937D938D939C931397AA
:1044BC0079C01D821E82212C312CC12CD12C0F2EA7
:1044CC00EE24EA94F3E0FF2EF02D59CF2D833E839A
:1044DC00242E352E54CFF701EC19FD096F01E12C78
:1044EC00F12CA70196010E94203FD5012D933D93FD
:1044FC004D935C931397F801208131814281538154
:10450C0039014A01660C771C881C991C660C771CB7
:10451C00881C991CD401C301880F991FAA1FBB1FAB
:10452C00880F991FAA1FBB1F860D971DA81DB91DAB
:10453C00BC01CD01621B730B840B950BA70196017B
:10454C000E947740D8012D933D934D935C93139724
:10455C00F50160817181828193810E949E378B016C
:10456C009C01000F111F221F331F000F111F221F50
:10457C00331F68017901CC0CDD1CEE1CFF1CCC0C2C
:10458C00DD1CEE1CFF1C0C0D1D1D2E1D3F1D68019E
:10459C007901C61AD70AE80AF90AF501C082D18254
:1045AC00E282F3826D817E81822D932D2896CDBF80
:1045BC00DEBFDF91CF911F910F91FF90EF90DF90B5
:1045CC00CF90BF90AF909F908F907F906F905F90A7
:0845DC004F903F902F900895CD
:1045E4002F923F924F925F926F927F928F929F92FF
:1045F400AF92BF92CF92DF92EF92FF920F931F93ED
:10460400CF93DF93CDB7DEB76E97CDBFDEBF6B839D
:104614007C838D839E83298B3A8B4B8B5C8B0F839E
:10462400E0E0F1E080898068808B82E0809304027E
:1046340080E094E084A395A388EC92E0A0E0A0E05D
:10464400B4E240E455E2FC0125913491232F220F7A
:10465400220B3C9311962C931197129608964A17A5
:104664005B0789F720E03CE22F8B388F80E197E2EB
:10467400A0E0B0E088879987AA87BB871D8A91E06C
:104684009E8B9F81892F90E0A0E0B0E0898F9A8F64
:10469400AB8FBC8F8BC11C861D861E861F86188A15
:1046A40029893A894B895C896B817C818D819E81C2
:1046B4000E94DC426B837C838D839E83AF81A43014
:1046C40050F429893A894B895C890E94DC426B83C6
:1046D4007C838D839E83BF81B33070F429893A89AA
:1046E4004B895C896B817C818D819E810E94DC4237
:1046F4006B837C838D839E83EF81E23070F4298900
:104704003A894B895C896B817C818D819E810E9471
:10471400DC426B837C838D839E8320E030E040E821
:1047240052E46B817C818D819E810E94DC420E94D7
:10473400B93C688779878A879B8760E078E488EE4C
:1047440091E0288539854A855B850E94203FC9010F
:10475400880F991F89839A838130914020F0BD8905
:10476400B983EE89EA8389819A818C0120E030E063
:1047740060E070E082E19AE7A90198010E94774025
:10478400CA01B901288539854A855B850E94203F85
:1047940049015A01211531054140510548F0B694AB
:1047A400A79497948794E2E0A0E0B9E0EC9304C066
:1047B400E1E0A0E0B9E0EC93E12C00E010E022E3BA
:1047C40030E040E157E269817A81C4010E94632AA2
:1047D400689412F8B694A794979487941694D1F792
:1047E400F1E08F1A9108809266099092670980918E
:1047F40020018068809320017894E1E0A8E4B0E08F
:10480400EC93889529803A80220C331C21143104BE
:1048140009F448C000E010E2002436942794079479
:10482400369427940794322C202C1D8E1E8E812CB6
:10483400912C5401412C512C3201D801CD90DD90A2
:104844008D010D2C000CEE08FF088D8D9E8D698165
:104854007A810E942041FB01DB01AA0FBB1FA050FB
:10486400BC4D0D90BC91A02DA70196010E949142D0
:10487400460E571E681E791EEE0FFF1FE05CFB4DAF
:10488400A081B1810E949142860E971EA81EB91E76
:10489400ED8DFE8DE05CFF4FED8FFE8F2E163F06F3
:1048A40061F606C0812C912C5401412C512C32010B
:1048B400C301B201689415F8959587957795679526
:1048C4001694D1F7689415F8B594A794979487949F
:1048D4001694D1F729813A816901330FEE08FF0854
:1048E400A70196010E94774029013A01C501B4014C
:1048F400A70196010E94774069017A01A301920100
:10490400C301B2010E94C1414B015C01A7019601A0
:10491400C701B6010E94C141860E971EA81EB91E8A
:104924008D859E85AF85B889880D991DAA1DBB1DEF
:104934008D879E87AF87B88B9C859F5F9C87AF814F
:10494400A913AECE6D857E858F859889298D3A8D84
:104954004B8D5C8D0E94203FCA01B9010E94C03F6B
:1049640089838F59EF89F88D8193EF8BF88F67E0F6
:104974008CE00E94F840688579858A859B856894D7
:1049840015F896958795779567951694D1F70E94B3
:10499400112D63E17CE080E00E94423F89810E9406
:1049A4000F3B2F89388D20583C4241F09F81911153
:1049B40072CE1D861E861F86188AC4CF6E96CDBF02
:1049C400DEBFDF91CF911F910F91FF90EF90DF90A9
:1049D400CF90BF90AF909F908F907F906F905F909B
:0849E4004F903F902F900895C1
:1049EC002F923F924F925F926F927F928F929F92F3
:1049FC00AF92BF92CF92DF92EF92FF920F931F93E1
:104A0C00CF93DF9300D000D0CDB7DEB7E0E0F0E27B
:104A1C002FEF37E280E081938F5F2E173F07D9F796
:104A2C00212CC12C21E02983512C812C912C312C4F
:104A3C00412C0F2EFEE76F2EFCE27F2EF02DAA24C8
:104A4C00AA94BA2C9981892F90E08B839C83EB805C
:104A5C000C810E949B30D82ED401A050B04EE0E0C7
:104A6C00FCE21E2DF02E8C9181932B813C81A20FA8
:104A7C00B31F6E167F06A9F7C5010197F1F7652DD7
:104A8C0080E09CE20E94C732D11003C0442009F39D
:104A9C007CC167E080E00E94F84030E4D3125AC039
:104AAC006FE87CE080E00E94423F0E949B308111C5
:104ABC00FCCFC5010197F1F767E084E20E94F84052
:104ACC000E949B30D82E832D90E09C01220F331F27
:104ADC00220F331F820F931FA0E0BC018A2F60525C
:104AEC00754F8F4F0E94423F6AEA7CE080E00E9443
:104AFC00423F81E0D81204C0332049F03A9407C0F9
:104B0C0092E0D91204C0EDE0E31508F03394C5012E
:104B1C000197F1F7F0E4DF12CFCF62E57CE080E0A3
:104B2C000E94423F0E949B308111FCCF2FEF2093BB
:104B3C004606C5010197F1F7232D40914F2E609148
:104B4C004E2E80914D2E0E94CF310F2EFEEF4F2E08
:104B5C00F02D0FC030E6D31679F080EAD81609F4A0
:104B6C004AC090E8D91609F47AC00F2EFEEF4F2EEA
:104B7C00F02DC1103CC004C00F2EFEEF4F2EF02DB7
:104B8C006AE67DE080E00E94423F80E098E0612F81
:104B9C007F2D0E9434419B012D573109CC24C394A5
:104BAC006894EE24E1F804E140E050E0B4018D2D6E
:104BBC000E94F83F4C010E941A3467E67DE080E0C9
:104BCC000E94423F6894CC24C4F86894EE24E3F825
:104BDC0002E020E130E041E050E0612F7F2D8D2D8F
:104BEC000E94F83F89830E940F3BC12CCAC0E1E0B0
:104BFC00CE1231C004C00F2EFEEF4F2EF02D6CEEF6
:104C0C007CE080E00E94423F652D70E06894CC24EB
:104C1C00C1F8EE24E39404E020E830E040E050E0FA
:104C2C008D2D0E94F83F582E9C0133272B833C83FB
:104C3C00C9010E941A3463E27DE080E00E94423F89
:104C4C008B819C818050944DFC0180810E940F3B94
:104C5C00CC24C39496C0F2E0CF1293C004C00F2EA4
:104C6C00FEEF4F2EF02D64EA7CE080E00E94423F84
:104C7C0010E021E02B8320914F2E8B81822319F0A1
:104C8C0033E03A8302C081E08A8390914D2EEB8110
:104C9C009E2319F0FA81FF5FFA8380914E2E822BAE
:104CAC002B81822309F41A82121112C03A81E32F4C
:104CBC00F0E0E25EF14D80810E94B53D88E0D812B3
:104CCC000FC09A819F5F9A83953050F01A8208C06A
:104CDC002A81E22FF0E0E25EF14D80810E944B3E92
:104CEC0020914E2E3B813095232320934E2E809184
:104CFC004D2E832380934D2E90914F2E9323909382
:104D0C004F2E3A81313029F48B81282B20934E2E53
:104D1C001DC0EA81E23041F4FB812F2B20934E2EF3
:104D2C008F2B80934D2E12C02A81233029F43B8186
:104D3C00932B90934F2E0AC0EA81E43039F4FB8117
:104D4C009F2B90934F2E8F2B80934D2E2B81220FC8
:104D5C002B831F5F183009F08ECF32E0D31205C0C1
:104D6C0081E0820D8830B8F417C081E0D81206C0FB
:104D7C008FEF820D211010C087E00EC06894CC24F8
:104D8C00C1F890E2D9125ECE0CC04A9467E080E084
:104D9C000E94F840EECE80E06894CC24C1F8282E16
:104DAC0051CE2496CDBFDEBFDF91CF911F910F91D5
:104DBC00FF90EF90DF90CF90BF90AF909F908F902F
:0E4DCC007F906F905F904F903F902F900895D2
:104DDA002F923F924F925F926F927F928F929F9201
:104DEA00AF92BF92CF92DF92EF92FF920F931F93EF
:104DFA00CF93DF9300D0CDB7DEB780E098E0809301
:104E0A00240190932501412CD12C512C0F2EF9E627
:104E1A003F2EF02D0F2EF0E8AF2EFCE2BF2EF02D24
:104E2A000F2EF6E48F2E912CF02D612C772473949B
:104E3A00FF24F3946894222422F80E949B30182FAE
:104E4A00843441F560E170E080E094E20E94D43A53
:104E5A00A0E0B0E2E0E0F4E2BD01AF0120813181DF
:104E6A003850C90199230CF407969595879595951D
:104E7A00879595958795DB018D939D93BD01DA0101
:104E8A001D921C92329680E098E28E179F0729F7AE
:104E9A00DF2C02C0882321F080914B2E8730A8F4A2
:104EAA00411013C0D30190968C9190978068909688
:104EBA008C9390977894E8E4F0E0F0828895909645
:104ECA008C9188234CF4DF2C21C0F30180A1882324
:104EDA00ECF0DD2009F423C160E07CE280E090E29E
:104EEA000E941D181CC1CF01208131812734310550
:104EFA0014F0808291823296DC018C91840FDB015E
:104F0A008D93BD01AA16BB0671F7D12CE2E3FEE22E
:104F1A00E080E394A4E3BEE24C9141950F2EF1E8C0
:104F2A00CF2EF02D0FEF20914A2E60E070E080E046
:104F3A009CE20E94C31E67E080E00E94F8401034A1
:104F4A0059F0103609F45EC0103A09F48EC05110B7
:104F5A0056C0112309F44BC060914B2E70E0CF2C40
:104F6A006894EE24E1F80F2D2EE030E042E050E0A4
:104F7A00812F0E94F83F80934B2E60914C2E70E057
:104F8A006894CC24C4F86894EE24E3F826E030E070
:104F9A0040E050E0812F0E94F83F80934C2E909180
:104FAA004B2E492F50E0FA01EE0FFF1F9F0140E000
:104FBA002756344F4F4F642FA901FA012591349196
:104FCA002093660930936709983020F097E0909310
:104FDA00040208C0953018F02092040203C092E03F
:104FEA0090930402880F880F836080932002609157
:104FFA004C2E80914B2E0E94583C512C88C0B1E017
:10500A005B1230C06091342E7091352ECF2C68948B
:10501A00EE24E1F805E020E831E040E050E0812F9D
:10502A000E94F83F8093342E9093352E60914A2E39
:10503A0070E06894CC24C4F86894EE24E3F8022D56
:10504A0028E230E040E050E0812F0E94F83F809350
:10505A004A2E682F8091342E9091352E0E94843FDB
:10506A005F2C55C0E2E05E1252C06091322E709100
:10507A00332E6894CC24C1F8EF2C05E020E830E008
:10508A0040E050E0812F0E94F83F8093322E9093A7
:10509A00332E40914B2E50E0FA01EE0FFF1F9F0175
:1050AA0040E02756344F4F4F642FA901FA0145912A
:1050BA005491FC01E050F44D208130E0205A31092E
:1050CA0060914A2E260F311DB901660F771F260FF0
:1050DA00371FB901759567957595679569837A83C1
:1050EA002091342E3091352E280F391FA4E8BEE1C5
:1050FA000E94FE419A0140E050E00E94203FCA010E
:10510A00B90149810E94703E6894552451F81038BB
:10511A0011F44F2492CE103209F08FCE10C0809134
:10512A004A2E432D481BE091342EF091352EEE0F76
:10513A00FF1FE050F04EA0E0BCE2BD01D4CE0F90BC
:10514A000F90DF91CF911F910F91FF90EF90DF9019
:10515A00CF90BF90AF909F908F907F906F905F900D
:08516A004F903F902F90089533
:10517200CF92DF92EF92FF92CF93DF936B017C018C
:10518200D42F603876498849910508F470C190E3BC
:1051920080E8C81A86E9D80A88E9E80AF10881E0B5
:1051A200890FC1EDC90F982F20E8C21626E9D20651
:1051B20028E9E206F10460F7D130D9F4CC2369F092
:1051C2000E94B53D80E4C81682E4D8068FE0E80666
:1051D200F104F8F480E34FC0C0E080E20E94B53DE4
:1051E20090E4C91692E4D9069FE0E906F10488F436
:1051F20045C0CC2319F00E944B3E03C080E20E94BE
:105202004B3E20E4C21622E4D2062FE0E206F1046D
:1052120098F080E390E4C91A92E4D90A9FE0E90A7F
:10522200F1088F5FCF5F20E4C21622E4D2062FE09E
:10523200E206F10478F701C080E3D230D1F4CC2346
:1052420061F00E94B53D80EAC81686E8D80681E082
:10525200E806F104F0F480E34CC080E20E94B53D20
:1052620090EAC91696E8D90691E0E906F10488F4B5
:1052720043C0CC2319F00E944B3E03C080E20E943F
:105282004B3E20EAC21626E8D20621E0E206F104ED
:1052920098F080E390EAC91A96E8D90A91E0E90AFF
:1052A200F1088F5FCF5F20EAC21626E8D20621E01E
:1052B200E206F10478F701C080E3D330C1F4CC23D5
:1052C20059F00E94B53D80E1C81687E2D806E10494
:1052D200F104E8F480E349C080E20E94B53D90E128
:1052E200C91697E2D906E104F10488F441C0CC233F
:1052F20019F00E944B3E04C080E20E944B3EC0E087
:1053020020E1C21627E2D206E104F10488F080E32C
:1053120090E1C91A97E2D90AE108F1088F5FCF5FDD
:1053220020E1C21627E2D206E104F10488F701C0A7
:1053320080E3D430C1F4CC2359F00E94B53D88EE0D
:10534200C81683E0D806E104F104E8F480E33AC029
:1053520080E20E94B53D98EEC91693E0D906E104B9
:10536200F10488F432C0CC2319F00E944B3E04C0F1
:1053720080E20E944B3EC0E028EEC21623E0D20635
:10538200E104F10488F080E398EEC91A93E0D90AA7
:10539200E108F1088F5FCF5F28EEC21623E0D20644
:1053A200E104F10488F701C080E3D53049F4CC234D
:1053B20019F00E94B53D60C080E20E94B53D5CC01C
:1053C200CC2319F00E944B3E03C080E20E944B3E68
:1053D20084E6C816D104E104F10470F080E394E697
:1053E200C91AD108E108F1088F5F24E6C216D10478
:1053F200E104F104A0F701C080E3D63049F40E9431
:10540200B53D8AE0C816D104E104F10448F43CC079
:105412000E944B3E9AE0C916D104E104F10470F0F7
:10542200C0E32AE0C21AD108E108F108CF5F8AE09E
:10543200C816D104E104F104A0F701C0C0E38EE272
:105442000E944B3ED73021F48C2F0E94B53D0AC0FA
:105452008C2F0E944B3ED83029F480E38C0D0E94A1
:10546200B53D29C080E38C0D0E944B3E24C04130E3
:1054720009F4B2CEC0E0C2CE94E6C916D104E1046A
:10548200F10408F0ABCF0CC08EE20E944B3E80E3E9
:105492000E944B3EE7CF8EE20E944B3EC0E3D8CF44
:1054A20080E30E944B3E2AE0C216D104E104F104DB
:1054B20008F0B6CFF0CFDF91CF91FF90EF90DF9061
:0454C200CF900895EA
:1054C6002F923F924F925F926F927F928F929F920E
:1054D600AF92BF92CF92DF92EF92FF920F931F93FC
:1054E600CF93DF93CDB7DEB76897CDBFDEBF6983B5
:1054F6007A834D835E8359010B831C83EF8A019760
:1055060080932609909327098091362E9091372E05
:1055160029813A818217930719F0C9010E94B9407F
:1055260049815A814093362E5093372E4A9D600109
:105536004B9DD00C5A9DD00C1124E12CF12CC701A7
:10554600B60124E630E040E050E00E947740942F18
:10555600852F422F532F692F782F822F932F8D87D8
:105566009E8789819A81892B09F4EEC00F2EF0E07F
:105576002F2EF8E23F2EF02D412C512C3201812C9A
:10558600912C540100E010E09F899350988FDB0125
:10559600CA01AA27BB278F87988BA98BBA8B8981CB
:1055A6009A81AD85BE858A1B9B0B9C0140E050E02D
:1055B6002B8B3C8B4D8B5E8BA981BA81CD01A0E0F4
:1055C600B0E089879A87AB87BC874D815E819A0157
:1055D60040E050E02D833E834F8358878B819C812A
:1055E600985F8B839C83BF89B1111EC0C501B4012E
:1055F60029853A854B855C850E94203FDA01C901E1
:1056060080589F4FAF4FBF4FFC01EE0FFF1FCF01DA
:10561600A0E088539D4FAF4FFC01C590D4900D2C50
:10562600000CEE08FF0855C0EF89E13071F42D85B6
:105636003E850217130708F444C0C12C6894DD2484
:10564600D7F8EE24EA94FE2C44C03F89323079F52F
:105656004D855E8540175107D8F4B801641B750B5C
:10566600CB01A0E0B0E0772766272B893C894D89DE
:105676005E890E9477400F2ECC24CA94FFE7DF2E66
:10568600E12CF12CF02DC21AD30AE40AF50A21C046
:10569600C301B2012F85388949895A890E9477400A
:1056A60069017A0180E8D81AE108F10812C0988DDC
:1056B600933008F449C0AF89A63059F40E94E041FE
:1056C60043C00F2ECC24CA94FFE7DF2EE12CF12C29
:1056D600F02DA70196016D817E818F8198850E94AC
:1056E600C1416B017C0120E43DE043E050E00E94B3
:1056F6007740EB81FC812E0F3F1F2130FDE73F07EE
:1057060020F0D1011D921C920DC02115B0E13B077E
:1057160020F4F1012083318305C0EFEFFFE0D101D2
:10572600ED93FC930F5F1F4FF2E02F0E311C22E02A
:10573600920EA11CB11C3FEF631A730A49815A816C
:105746004017510709F04FCF6896CDBFDEBFDF91F6
:10575600CF911F910F91FF90EF90DF90CF90BF9068
:10576600AF909F908F907F906F905F904F903F90FB
:045776002F900895D3
:10577A006F927F928F929F92AF92BF92CF92DF9257
:10578A00EF92FF920F931F93CF93DF93612C10E058
:10579A00D0E06894772472F80E949B30C82F803436
:1057AA0009F40FC1803609F025C1DAC00E949B3086
:1057BA008034E1F367E082E10E94F8400E949B3066
:1057CA00C82F61E97DE080E00E94423F8091462E29
:1057DA009091472E0E941A346FE57DE080E00E9486
:1057EA00423F6BE57DE080E00E94423F8091482E77
:1057FA009091492E0E941A346091462E7091472E3C
:10580A006894CC24C3F86894EE24E4F804E12FEFFA
:10581A003FE741E050E08C2F0E94F83F8093462EEC
:10582A009093472E6091482E7091492E6894CC240B
:10583A00C1F8EE24E3942FEF3FE741E050E08C2FCC
:10584A000E94F83F8093482E9093492EC03439F035
:10585A00C03629F0C03819F0C03209F0ABCF0E9427
:10586A009B308111FCCF612C6091482E7091492E9A
:10587A00072E000C880B990B0E94993A0E94FB375D
:10588A000E94FB370E94FB370E94FB370E94FB37BE
:10589A000E94FB370E94FB370E94FB370E94FB37AE
:1058AA004B015C016091462E7091472E660F771F5F
:1058BA00CB01880F991F880F991F680F791F072E30
:1058CA00000C880B990B0E94993A6B017C016620A7
:1058DA0021F081E08093662E04C07092662EC03457
:1058EA0041F40091662EA5019401C701B6010E94F8
:1058FA00F222A5019401C501B4010E94DC429B0178
:10590A00AC010E94DC424B015C01112361F0D0E042
:10591A00A5019401C701B6010E94DC426B017C011A
:10592A00DF5FD113F5CFE12FF0E0E050F44DA08016
:10593A00B12C8DE9A81AB108C501880F991FA80EC4
:10594A00B91EB594A794B594A794C701B6010E944D
:10595A00B93C4A2D0E94703ED0E00EC0D13061F4AD
:10596A0067E080E00E94F8406EE87DE080E00E94F7
:10597A00423F0E943531D1E06894EE24E1F8E10E0D
:10598A000F2EF1E8CF2EF02D0FEF20E840E060E077
:10599A0070E080E09CE20E94C31E612F70E0689470
:1059AA00CC24C1F8EE24E394072D20E830E040E04F
:1059BA0050E08C2F0E94F83F182FC03209F0ECCE2D
:1059CA001CC067E080E00E94F84063E67DE080E06A
